{
  "_format": "hh-sol-artifact-1",
  "contractName": "Carpool",
  "sourceName": "contracts/Carpool.sol",
  "abi": [
    {
      "anonymous": false,
      "inputs": [
        {
          "indexed": false,
          "internalType": "uint256",
          "name": "rideId",
          "type": "uint256"
        },
        {
          "indexed": false,
          "internalType": "address",
          "name": "passenger",
          "type": "address"
        }
      ],
      "name": "RideBooked",
      "type": "event"
    },
    {
      "anonymous": false,
      "inputs": [
        {
          "indexed": false,
          "internalType": "uint256",
          "name": "rideId",
          "type": "uint256"
        }
      ],
      "name": "RideCompleted",
      "type": "event"
    },
    {
      "anonymous": false,
      "inputs": [
        {
          "indexed": false,
          "internalType": "uint256",
          "name": "rideId",
          "type": "uint256"
        },
        {
          "indexed": false,
          "internalType": "address",
          "name": "driver",
          "type": "address"
        },
        {
          "indexed": false,
          "internalType": "uint256",
          "name": "fare",
          "type": "uint256"
        },
        {
          "indexed": false,
          "internalType": "uint256",
          "name": "seatsAvailable",
          "type": "uint256"
        }
      ],
      "name": "RideCreated",
      "type": "event"
    },
    {
      "inputs": [
        {
          "internalType": "uint256",
          "name": "_rideId",
          "type": "uint256"
        }
      ],
      "name": "bookRide",
      "outputs": [],
      "stateMutability": "payable",
      "type": "function"
    },
    {
      "inputs": [
        {
          "internalType": "uint256",
          "name": "",
          "type": "uint256"
        },
        {
          "internalType": "uint256",
          "name": "",
          "type": "uint256"
        }
      ],
      "name": "bookedPassengers",
      "outputs": [
        {
          "internalType": "address",
          "name": "",
          "type": "address"
        }
      ],
      "stateMutability": "view",
      "type": "function"
    },
    {
      "inputs": [
        {
          "internalType": "uint256",
          "name": "_rideId",
          "type": "uint256"
        }
      ],
      "name": "completeRide",
      "outputs": [],
      "stateMutability": "nonpayable",
      "type": "function"
    },
    {
      "inputs": [
        {
          "internalType": "uint256",
          "name": "_fare",
          "type": "uint256"
        },
        {
          "internalType": "uint256",
          "name": "_seatsAvailable",
          "type": "uint256"
        }
      ],
      "name": "createRide",
      "outputs": [],
      "stateMutability": "nonpayable",
      "type": "function"
    },
    {
      "inputs": [
        {
          "internalType": "uint256",
          "name": "_rideId",
          "type": "uint256"
        }
      ],
      "name": "getBookedPassengers",
      "outputs": [
        {
          "internalType": "address[]",
          "name": "",
          "type": "address[]"
        }
      ],
      "stateMutability": "view",
      "type": "function"
    },
    {
      "inputs": [
        {
          "internalType": "uint256",
          "name": "_rideId",
          "type": "uint256"
        }
      ],
      "name": "getRide",
      "outputs": [
        {
          "internalType": "address",
          "name": "",
          "type": "address"
        },
        {
          "internalType": "uint256",
          "name": "",
          "type": "uint256"
        },
        {
          "internalType": "uint256",
          "name": "",
          "type": "uint256"
        },
        {
          "internalType": "bool",
          "name": "",
          "type": "bool"
        }
      ],
      "stateMutability": "view",
      "type": "function"
    },
    {
      "inputs": [],
      "name": "getRideCount",
      "outputs": [
        {
          "internalType": "uint256",
          "name": "",
          "type": "uint256"
        }
      ],
      "stateMutability": "view",
      "type": "function"
    },
    {
      "inputs": [],
      "name": "rideCounter",
      "outputs": [
        {
          "internalType": "uint256",
          "name": "",
          "type": "uint256"
        }
      ],
      "stateMutability": "view",
      "type": "function"
    },
    {
      "inputs": [
        {
          "internalType": "uint256",
          "name": "",
          "type": "uint256"
        }
      ],
      "name": "rideExists",
      "outputs": [
        {
          "internalType": "bool",
          "name": "",
          "type": "bool"
        }
      ],
      "stateMutability": "view",
      "type": "function"
    },
    {
      "inputs": [
        {
          "internalType": "uint256",
          "name": "",
          "type": "uint256"
        }
      ],
      "name": "rides",
      "outputs": [
        {
          "internalType": "address",
          "name": "driver",
          "type": "address"
        },
        {
          "internalType": "uint256",
          "name": "fare",
          "type": "uint256"
        },
        {
          "internalType": "uint256",
          "name": "seatsAvailable",
          "type": "uint256"
        },
        {
          "internalType": "bool",
          "name": "isCompleted",
          "type": "bool"
        }
      ],
      "stateMutability": "view",
      "type": "function"
    }
  ],
  "bytecode": "0x608060405234801561001057600080fd5b506109ac806100206000396000f3fe6080604052600436106100915760003560e01c80638959a5d1116100595780638959a5d1146101bd578063b10fefc0146101dc578063c416dd0b146101f2578063c69b2cf614610212578063f4df84431461022557600080fd5b80635205f112146100965780635cc986cb14610116578063760b8c37146101435780637c7b0ff41461017b57806385a791731461019b575b600080fd5b3480156100a257600080fd5b506100e56100b136600461087b565b60006020819052908152604090208054600182015460028301546003909301546001600160a01b0390921692909160ff1684565b604080516001600160a01b039095168552602085019390935291830152151560608201526080015b60405180910390f35b34801561012257600080fd5b5061013661013136600461087b565b610265565b60405161010d9190610894565b34801561014f57600080fd5b5061016361015e3660046108e1565b61030c565b6040516001600160a01b03909116815260200161010d565b34801561018757600080fd5b506100e561019636600461087b565b610344565b3480156101a757600080fd5b506101bb6101b63660046108e1565b6103d5565b005b3480156101c957600080fd5b506001545b60405190815260200161010d565b3480156101e857600080fd5b506101ce60015481565b3480156101fe57600080fd5b506101bb61020d36600461087b565b61055a565b6101bb61022036600461087b565b610648565b34801561023157600080fd5b5061025561024036600461087b565b60036020526000908152604090205460ff1681565b604051901515815260200161010d565b600081815260036020526040902054606090829060ff166102a15760405162461bcd60e51b815260040161029890610903565b60405180910390fd5b600083815260026020908152604091829020805483518184028101840190945280845290918301828280156102ff57602002820191906000526020600020905b81546001600160a01b031681526001909101906020018083116102e1575b5050505050915050919050565b6002602052816000526040600020818154811061032857600080fd5b6000918252602090912001546001600160a01b03169150829050565b600081815260036020526040812054819081908190859060ff1661037a5760405162461bcd60e51b815260040161029890610903565b505050600092835250506020818152604091829020825160808101845281546001600160a01b03168082526001830154938201849052600283015494820185905260039092015460ff16151560609091018190529093919291565b600081116104255760405162461bcd60e51b815260206004820152601c60248201527f4d757374206f66666572206174206c65617374206f6e652073656174000000006044820152606401610298565b600082116104755760405162461bcd60e51b815260206004820152601b60248201527f46617265206d7573742062652067726561746572207468616e203000000000006044820152606401610298565b6001805490600061048583610946565b90915550506040805160808082018352338083526020808401878152848601878152600060608088018281526001805484528387528a842099518a546001600160a01b039091166001600160a01b0319909116178a559451898601559251600289015591516003978801805491151560ff199283161790558354825296845287902080549096168217909555548551908152908101919091529283018590529082018390527f3db694c2ec334d24226dc173d5fce5eca9e77945ebac1560f2ec95bbcd06174f91015b60405180910390a15050565b600081815260036020526040902054819060ff1661058a5760405162461bcd60e51b815260040161029890610903565b6000818152602081905260409020546001600160a01b031633146105fa5760405162461bcd60e51b815260206004820152602160248201527f4f6e6c79206472697665722063616e20636f6d706c65746520746865207269646044820152606560f81b6064820152608401610298565b60008281526020819052604090819020600301805460ff19166001179055517f63e5b4bf8bc6c9cf867e6cc4d53f654c1f0365d975100e04129de6383f8c4b239061054e9084815260200190565b600081815260036020526040902054819060ff166106785760405162461bcd60e51b815260040161029890610903565b600082815260208190526040902060028101546106cc5760405162461bcd60e51b81526020600482015260126024820152714e6f20736561747320617661696c61626c6560701b6044820152606401610298565b600381015460ff16156107155760405162461bcd60e51b8152602060048201526011602482015270149a5919481a5cc818dbdb5c1b195d1959607a1b6044820152606401610298565b806001015434146107595760405162461bcd60e51b815260206004820152600e60248201526d496e636f7272656374206661726560901b6044820152606401610298565b80546001600160a01b031633036107bc5760405162461bcd60e51b815260206004820152602160248201527f4472697665722063616e6e6f7420626f6f6b207468656972206f776e207269646044820152606560f81b6064820152608401610298565b6002810180549060006107ce8361095f565b90915550506000838152600260209081526040808320805460018101825590845291832090910180546001600160a01b03191633179055825490516001600160a01b0391909116913480156108fc02929091818181858888f1935050505015801561083d573d6000803e3d6000fd5b50604080518481523360208201527f65394bc371dbe55ca40e19310c8a935b039bf28367787cfaeeecfe3361bf18a0910160405180910390a1505050565b60006020828403121561088d57600080fd5b5035919050565b6020808252825182820181905260009190848201906040850190845b818110156108d55783516001600160a01b0316835292840192918401916001016108b0565b50909695505050505050565b600080604083850312156108f457600080fd5b50508035926020909101359150565b602080825260139082015272149a591948191bd95cc81b9bdd08195e1a5cdd606a1b604082015260600190565b634e487b7160e01b600052601160045260246000fd5b60006001820161095857610958610930565b5060010190565b60008161096e5761096e610930565b50600019019056fea2646970667358221220fcb65ecb778f33d6033ed09f05ef114de2378dfac090b77022e27bf83ed4066d64736f6c63430008130033",
  "linkReferences": {},
  "deployedLinkReferences": {}
}